:0400000002EF08F013
:1000080000C016F001C015F0E1CF19F0E2CF1AF0E8
:10001800E9CF17F0EACF18F09EAA45D09E9A8280C1
:1000280028C077F129C078F15A0E0101796F000EC6
:100038007A6F1E0E7B6F66DA010E2824E96E000EB9
:100048002920EA6EEE50340A20E1030E2824E16EDE
:10005800000E2920E26E63C0E6FF040E2824E16E3C
:10006800000E2920E26E1CC0E6FF050E2824E96E6A
:10007800000E2920EA6EEECF59F0060E2824E96E0C
:10008800000E2920EA6EEECF23F028C077F129C0B0
:1000980078F191DA4F0E7F6FC9D94B0E01017F6F4E
:1000A800C5D982909E9A16C000F015C001F017C0FD
:1000B800E9FF18C0EAFF19C0E1FF1AC0E2FF11000A
:0A00C800120E0D6E0D2EFED7120071
:1000D2000B820BAE73EF00F00368026801680068E0
:0800E2000A360232FF0E120083
:0800EA000AAE029E000E120096
:1000F2000B840BAE84EF00F0010E036E026A016AFC
:0A010200006A0A360232FF0E1200F6
:0E010C00026A016A006A086A036A000E1200A5
:08011A000B6A0B86FF0E1200B8
:10012200C26A070EC012C08E76C100F0003600907F
:10013200003600900050C212C280C5DFC282C2A245
:1001420001D0FDD7C4CF01F0006AC3500012000EE7
:060152000112C290120030
:100158000C6A0E6A0250D8A4C5EF00F001C002F084
:1001680000C001F0006A0E860250D8A4C5EF00F066
:1001780001C002F0016A0E960E880250D8B4D7EF7B
:1001880000F00E50035ED8A4D8A0DCEF00F0D890A1
:1001980002BEE1EF00F0003601360236032ECCEF46
:1001A80000F0DCEF00F0010E0C6EACDFE4EF00F0C5
:1001B800020E0C6E9ADFE4EF00F0040E0C6E91DF75
:0201C800120023
:1001CA000CB027EF01F00CA2CDEF01F00E6A000E81
:1001DA0002643EEF01F0F00E0214D8A409EF01F018
:1001EA00023A01380F0B02260138F00B016E003873
:1001FA000F0B01260038F00B006E08380F0B002693
:10020A000838F00B086E0E84D89002BE22EF01F077
:10021A0008360036013602360E2A02BE22EF01F0F7
:10022A0008360036013602360E2A02BE22EF01F0E7
:10023A0008360036013602360E2A0E500364C3EF22
:10024A0001F0035E0BBC08AEC8EF01F0D880800E47
:10025A0008640030000E002201220222D8A0C8EF52
:10026A0001F0023201320032034ACDEF01F0C8EF49
:10027A0001F001C002F000C001F008C000F0086AF5
:10028A00000E0E86026475EF01F0F00E0214D8A477
:10029A005DEF01F0023A01380F0B02260138F00B2C
:1002AA00016E00380F0B01260038F00B006E0E8429
:1002BA00D89002BE22EF01F00036013602360E2A2D
:1002CA0002BE22EF01F00036013602360E2A02BEC5
:1002DA0022EF01F00036013602360E2A22EF01F033
:1002EA0001C002F000C001F0006A000E0E960E88EE
:1002FA000264A2EF01F0F00E0214D8A48DEF01F00F
:10030A00023A01380F0B02260138F00B016E0E84F7
:10031A00D89002BE22EF01F0013602360E2A02BE42
:10032A0022EF01F0013602360E2A02BE22EF01F058
:10033A00013602360E2A22EF01F001C002F0016AEC
:10034A00000E0E860264D2EF01F0F00E0214D8A459
:10035A00B1EF01F0023A0E84D89002BE22EF01F00A
:10036A0002360E2A02BE22EF01F002360E2A02BE21
:10037A0022EF01F002360E2A22EF01F0010E0C6E76
:10038A00B3DED5EF01F0020E0C6EAADED5EF01F056
:10039A00040E0C6E99DED5EF01F0080E0C6EB1DE7C
:0203AA0012003F
:1003AC000B800BAEE2EF01F0026A0AAEFF0E026E9A
:0C03BC00016E006E0A360232FF0E1200C5
:0A03C800000E9EBA010E006E120036
:1003D200AECF01F0ABA202D0AB98AB8801C000F067
:0203E200120007
:1003E4000B6A0A6A096A00500402F4CF09F0F3CFD9
:1003F40008F001500502F4CF0BF0F3CF0AF00050DF
:100404000502F3500926F4500A22E86A0B2201502F
:100414000402F3500926F4500A22E86A0B2208C0A9
:1004240000F009C001F00AC002F00BC003F0120092
:0E043400ACB202D00000FCD77FC1ADFF1200B9
:10044200086A096A100E0C6E013408360936045027
:10045200085E0550D8A0053C095ED8B007D004500C
:1004620008260550D8B0053C0926D890003601363A
:060472000C2EEAD7120077
:0A0478009494CA840C0EBD12120009
:10048200CB50010F006E016A000E012271C104F00F
:10049200000E056EA6DF060E026E00C004F001C05B
:1004A20005F0025005E005320432059EFF0FFAD72F
:1004B200040E016E04C000F0015004E0003600900A
:1004C200FF0FFBD7300E0014036E04C000F005C00E
:1004D20001F001320032019E01320032019E00C061
:0C04E200BEFF0F0EBD160350BD1212002D
:1004EE00FF0E01015D6FFF0E5E6FFF0E5F6FFF0E61
:0E04FE00606FC26A070EC012C08EC28012006C
:10050C0001017D6B7E6B7B5342E07B51FF0AD8A4CB
:10051C007B0754DF0050000A01E1FBD754DF00C019
:10052C007CF101017D517725E16E000E7821E26EA0
:10053C0000C0E6FF7D2B7E517925E96E000E7A21F5
:10054C00EA6EEE507C1902E17E2B09D07E6B79C1EC
:10055C00E9FF7AC1EAFFEE507C19D8B47E2B7E51AC
:10056C007925E96E000E7A21EA6EEE50000A0EE152
:10057C007E517D5D006E016A000E015A0050772598
:10058C00E16E01507821E26EE66A06D0BCD777C1E5
:0A059C00E1FF78C1E2FFE66A1200F9
:1005A6000900F5CFE6FF0006FBE10106F9E11200BE
:0805B600BE6ABD98BD9A120057
:1005BE0001017A6B77C1E9FF78C1EAFFEECF79F1DD
:1005CE007951000A0EE079C17FF12DDF01017A2BFE
:1005DE007A517725E96E000E7821EA6EEECF79F129
:0405EE00EFD7120031
:1005F2000450000A12E10550000A0FE10650000AF9
:100602000CE10750000A09E1FF0E006EFF0E016EB9
:100612007F0E026EFF0E036EA4D0086A096A0750AD
:10062200D8B4A4EF03F00350D8B4A8EF03F00250FB
:1006320006180A6E028E068E0E6A02C008F001C00B
:100642000CF000C00DF004500D5E0550D8A0053C22
:100652000C5E0650D8A0063C085E086A0C6A0D6A59
:10066200D8A03BEF03F0D8900232013200320832B8
:10067200010E0E6E0750035ED8A048EF03F07E0E07
:100682000E240326D8B0ACEF03F04EEF03F07E0E3B
:100692000E240326D8A0B0EF03F0180E0B6E0D3611
:1006A2000C3608360036013602360E360450005E2D
:1006B2000550D8A0053C015E0650D8A0063C025E5B
:1006C20006340E120EA069EF03F00D8074EF03F0F2
:1006D200045000260550D8B0053C01260650D8B07B
:1006E200062802260D900B2E50EF03F09AEF03F02E
:1006F200D8900036013602360E360450005E0550A0
:10070200D8A0053C015E0650D8A0063C025E063425
:100712000E10010B0D26D8B00C2AD8B4082AD8A482
:100722009AEF03F008320C320D32032AD8B4ACEF40
:1007320003F00AAE089E0850026E0C50016E0D5076
:10074200006EB2EF03F0010EE7DCB2EF03F0020E2F
:10075200DCDCB2EF03F0040EBBDCB2EF03F0080EF8
:04076200C7DC1200DE
:10076600025006180E6E086A096A0B6A035007647F
:10077600A6EF04F006500A6E068E028E03500B6E2C
:100786000750036E000E0B64F6EF03F00B50075E86
:10079600D8B497EF04F0070E076465EF04F0075E20
:1007A60000C008F001C000F002C001F0026A074E66
:1007B60097EF04F007643AEF04F0075E00C008F014
:1007C60001C000F0016A074E97EF04F0076418EFC6
:1007D60004F0075E00C008F0006A074E97EF04F0C9
:1007E6000764FFEF03F00AC002F005C001F004C081
:1007F60000F0086AC3EF05F0030E07640AEF04F081
:10080600075E08380F0B086E074E97EF04F0D89076
:100816000832074E97EF04F0D8900832074E97EF4C
:1008260004F0D890083297EF04F0030E076429EF1E
:1008360004F0075E08380F0B086E0038F00B082628
:1008460000380F0B006E074E97EF04F0D890003279
:100856000832074E97EF04F0D89000320832074E60
:1008660097EF04F0D8900032083297EF04F0030EA9
:10087600076451EF04F0075E08380F0B086E003866
:10088600F00B082600380F0B006E0138F00B00261F
:1008960001380F0B016E074E97EF04F0D890013226
:1008A60000320832074E97EF04F0D890013200323A
:1008B6000832074E97EF04F0D89001320032083222
:1008C60097EF04F0030E076482EF04F0075E083822
:1008D6000F0B086E0038F00B082600380F0B006E61
:1008E6000138F00B002601380F0B016E0238F00BB1
:1008F600012602380F0B026E074E97EF04F0D890D0
:100906000232013200320832074E97EF04F0D890D7
:100916000232013200320832074E97EF04F0D890C7
:100926000232013200320832096A000E0EAE8BEF37
:1009360005F0081E001E011E021E082A00220122C2
:1009460002228BEF05F00750D8A4ACEF04F0C3EFFA
:1009560005F0096A02C00AF0028E068E0750035C93
:10096600076ED8B47EEF05F0070E07644CEF05F06E
:10097600075E0450096E0550046E0650056E066A41
:10098600074E7EEF05F0070E076421EF05F0075EC0
:100996000450096E0550046E056A074E7EEF05F099
:1009A600070E0764FFEF04F0075E0450096E046A41
:1009B600074E7EEF05F0070E0764E6EF04F00AC067
:1009C60002F0C3EF05F0030E0764F1EF04F0075ED3
:1009D60009380F0B096E074E7EEF05F0D8900932E5
:1009E600074E7EEF05F0D8900932074E7EEF05F0F0
:1009F600D89009327EEF05F0030E076410EF05F07C
:100A0600075E09380F0B096E0438F00B0926043807
:100A16000F0B046E074E7EEF05F0D89004320932B4
:100A2600074E7EEF05F0D89004320932074E7EEF6E
:100A360005F0D890043209327EEF05F0030E076404
:100A460038EF05F0075E09380F0B096E0438F00B16
:100A5600092604380F0B046E0538F00B04260538FA
:100A66000F0B056E074E7EEF05F0D8900532043267
:100A76000932074E7EEF05F0D8900532043209326E
:100A8600074E7EEF05F0D8900532043209327EEF2C
:100A960005F0030E076469EF05F0075E09380F0BD2
:100AA600096E0438F00B092604380F0B046E05385E
:100AB600F00B042605380F0B056E0638F00B0526DD
:100AC60006380F0B066E074E7EEF05F0D8900632FD
:100AD600053204320932074E7EEF05F0D890063211
:100AE600053204320932074E7EEF05F0D890063201
:100AF600053204320932086A000E0EAE8BEF05F09D
:100B0600091E041E051E061E092A042205220622A7
:100B160009500826045000220550012206500222E0
:100B26000EBEA2EF05F0D8A0B1EF05F002320132F9
:100B360000320832033EB1EF05F0BDEF05F0D8B044
:100B4600B7EF05F0000E081E001E011E021E082A41
:100B56000022012202220A7EB7EF05F0010E0C6E7A
:100B6600E5EC00F0C5EF05F0020E0C6EE5EC00F0CA
:100B7600C5EF05F0040E0C6E69EC00F0C5EF05F04C
:060B8600000E0C6E1200CF
:100B8C000B6A0C6A0A6A0350D8B410EF06F0028E96
:100B9C008E0E035E03BED8EF05F0D8B4D8EF05F087
:100BAC0014EF06F0036C080E035CD8A0EFEF05F011
:100BBC00036E013602C001F0026A080E035CD8A075
:100BCC00EFEF05F00136016A0350D8A4D890F9EF85
:100BDC0005F00350D8B4F9EF05F0D8900232013289
:100BEC00032EF3EF05F00BBC01A006EF06F0D8A026
:100BFC0006EF06F0012AD8B4022A02BE23EF06F053
:100C0C000AAE29EF06F0021E011E012AD8B4022AF0
:100C1C0029EF06F0026A016A29EF06F00B800BAE91
:100C2C002DEF06F0026A0AAE2DEF06F0FF0E026EF3
:100C3C00016E0A3602322DEF06F0010E0C6ED6EC68
:100C4C0001F02FEF06F0000E0C6E2FEF06F0FF0EEA
:0C0C5C000C6E0150006E0250016E120080
:100C6800086A096A000E07620364B9EF06F00250C9
:100C780006180A6E075003267E0ED8A04AEF06F023
:100C8800035ED8B0BEEF06F04EEF06F0035ED8A0C4
:100C9800C3EF06F0028E068E02C00EF001C00BF004
:100CA80000C00DF000500402F4CF0CF00150050212
:100CB800F4CF00F0F3CF08F00402F3500C26F45000
:100CC8000822000E00220D500502F3500C26F450A5
:100CD8000822000E002202500402F3500826F450A5
:100CE800002202500502016A000E0122F35000267C
:100CF800F45001220D500602F3500826F450002249
:100D0800026A000E012202220B500602F35000264E
:100D1800F4500122000E02220E500602F350012662
:100D2800F450022202BEA1EF06F008360036013662
:100D380002360306D8B4C3EF06F0B4EF06F0D88045
:100D4800800E08640030000E002201220222D8A082
:100D5800B4EF06F0023201320032034ABEEF06F069
:100D68000AAE029E000EC6EF06F0010E86EC00F0F9
:100D7800C6EF06F0020E69EC00F0C6EF06F0040EAE
:060D880079EC00F01200FE
:100D8E00340E01016D6F040E6E6F7F0E6F6F010ECC
:100D9E00706FD20E696F030E6A6F000E6B6F000ECE
:100DAE006C6FC80E656F030E666F000E676F000ED8
:100DBE00686FFF0E616FFF0E626F000E636F000EA5
:100DCE00646FAC8A900EAB6E948E949C9EAA03D0E8
:080DDE00AECF00F0FBD71200BC
:100DE6001F6A206A000E010171BFFF0E205C02E13E
:100DF60071511F5C26E21FC000F020C001F00036D2
:100E0600009001366D0E0024746F000E0120756F80
:100E160072C176F191EC00F074C1E1FF75C1E2FF99
:100E260000C0E6FF01C0E6FF040E0C6E3D0E0D6E1F
:100E36000D2EFED70C2EFCD7000000001F4A202ADC
:100E4600D1D71F6A206A1B6A800E006E800E0101D0
:100E560071BF7F0E005C02E171511B5C72E2696A30
:100E66006A6A000E71BFFF0E6A5C02E17151695C2D
:100E760066E21BC000F0000E016E003600900136DF
:100E86006D0E0024E96E000E0120EA6EEECF03F02F
:100E9600EECF04F069C000F06AC001F000360090A1
:100EA60001366D0E0024D96E000E0120DA6EDECFFB
:100EB60001F0DECF02F00450025C02E10350015C57
:100EC6003BE21BC000F0000E016E003600900136BA
:100ED6006D0E0024036E000E0120046E03C0E9FFB0
:100EE60004C0EAFFEECF67F0EECF68F069C000F00D
:100EF6006AC001F00036009001366D0E0024E96EDE
:100F0600000E0120EA6E03C0E1FF04C0E2FFEECF4F
:100F1600E6FFEECFE6FF69C000F06AC001F00036DA
:100F2600009001366D0E0024E16E000E0120E26E87
:100F360067C0E6FF68C0E6FF694A6A2A92D71B2A9D
:100F460083D773C11BF001017351715D016E000EF1
:100F560071BFFF0E026E000E73BFFF0E025A800EA7
:100F6600006E800E0218005C02E101501B5C13E269
:100F76001BC000F0000E016E0036009001366D0EAB
:100F86000024D96E000E0120DA6EDE506526DE5092
:100F960066221B2AD8D773C100F0000E73BFFF0E5E
:100FA600016E0036013600900050715D046E01C07E
:100FB60005F0000E71BFFF0E055665C000F066C055
:100FC60001F021EC02F000C06BF001C06CF0656A24
:040FD600666A120035
:100FDA000050086E0150006E016A026A036A0B6AC9
:100FEA000C6A960E036E0A6A00C001F008C000F08F
:0A0FFA00086A026AACEC00F0120075
:101004005DEC0AF0B886010EB06E030EAF6EAC84D0
:10101400BCDEF28E9D8AF28C9E9AAB88000E946E92
:10102400826A070EC112070EB41277EC02F0CA806E
:10103400CA927C0ECB6EDBEC02F0716B41EC02F0D9
:101044003CEC02F0ABA200D0AB888290320E0101DE
:10105400716F030E726F0A0E736FC3DE00C063F00C
:1010640001C064F000C01DF001C01EF000C063F0B8
:1010740001C064F064326332649E64326332649EFD
:10108400320E716F090E726F0A0E736FAADE00C002
:1010940021F001C022F000C026F001C027F000C0FA
:1010A40021F001C022F022322132229E223221324A
:1010B400229E00501D5C006E01501E58016E8BDF95
:1010C400CD0E046ECC0E056E0C0E066E810E076EF0
:1010D400C9DD000E046EE00E056E120E066E8B0E58
:1010E400076EF9EC02F000C05DF001C05EF002C0D2
:1010F4005FF003C060F0000E046E000E056E7A0E01
:10110400066E880E076EAEDD000E046E000E056ED0
:101114000C0E066E850E076EB3EC03F000C05DF096
:1011240001C05EF002C05FF003C060F02DDD00C0BE
:1011340061F001C062F000C002F001C003F00332AC
:101144000232039E03320232039E02C01CF0000EE0
:10115400255C02E1C80E245C04E3C80E246E000E74
:10116400256E2350310A14E1000E625C02E1960EF2
:10117400615C0EE3010E245E000E255A24C071F159
:1011840041EC02F0A60E0D6E0D2EFED700006CD1C0
:101194002350310A14E1000E006E6250005C02E13B
:1011A400615032080CE3244A252A24C071F141EC31
:1011B40002F0A60E0D6E0D2EFED7000055D1235061
:1011C400310A1CE1000E006E6250005C02E16150C5
:1011D400320814E2000E625C02E1960E615C0EE2DB
:1011E40024C071F141EC02F0210E0C6E760E0D6EEE
:1011F4000D2EFED70C2EFCD7000036D12350320A18
:1012040014E1010E625C02E12C0E615C0EE3010E3E
:10121400245E000E255A24C071F141EC02F0A60EA2
:101224000D6E0D2EFED700001FD12350320A14E19B
:10123400000E006E6250005C02E1615096080CE3FF
:10124400244A252A24C071F141EC02F0A60E0D6E49
:101254000D2EFED7000008D12350320A1CE1000EE7
:10126400006E6250005C02E16150960814E2010EC7
:10127400625C02E12C0E615C0EE224C071F141EC6F
:1012840002F0210E0C6E760E0D6E0D2EFED70C2E76
:10129400FCD70000E9D02350330A14E1010E625C4C
:1012A40002E1C20E615C0EE3010E245E000E255ABB
:1012B40024C071F141EC02F0A60E0D6E0D2EFED786
:1012C4000000D2D02350330A12E16250010802E137
:1012D40061502C080CE3244A252A24C071F141EC06
:1012E40002F0A60E0D6E0D2EFED70000BDD02350C9
:1012F400330A1AE16250010802E161502C0814E239
:10130400010E625C02E1C20E615C0EE224C071F166
:1013140041EC02F0210E0C6E760E0D6E0D2EFED7F2
:101324000C2EFCD70000A0D02350340A14E1020E86
:10133400625C02E1580E615C0EE3010E245E000E55
:10134400255A24C071F141EC02F0A60E0D6E0D2E4B
:10135400FED7000089D02350340A12E162500108FC
:1013640002E16150C2080CE3244A252A24C071F129
:1013740041EC02F0A60E0D6E0D2EFED7000074D0C7
:101384002350340A1AE16250010802E16150C20894
:1013940014E2020E625C02E1580E615C0EE224C0AB
:1013A40071F141EC02F0210E0C6E760E0D6E0D2ED5
:1013B400FED70C2EFCD7000057D02350350A14E179
:1013C400030E625C02E1840E615C0EE3010E245E96
:1013D400000E255A24C071F141EC02F0A60E0D6EE8
:1013E4000D2EFED7000040D02350350A12E1625082
:1013F400020802E161508A080CE3244A252A24C029
:1014040071F141EC02F0A60E0D6E0D2EFED7000018
:101414002BD02350350A1AE16250020802E16150D0
:101424008A0814E2030E625C02E1840E615C0EE23F
:1014340024C071F141EC02F0210E0C6E760E0D6E9B
:101444000D2EFED70C2EFCD700000ED02350300AF0
:1014540007E1246A256A0101716B41EC02F004D0B2
:0C1464000101716B41EC02F0EDD5FFD7E7
:1014BA0010EE1BF04A0E006E010E016E700EF66EF3
:0E14CA00140EF76E000EF86ED3EC02F0120056
:01147000007B
:01147100007A
:02147200000078
:02147400000076
:02147600000074
:011478000073
:02147900000071
:02147B0000006F
:02147D002A0043
:10147F004D657A61726C617264616E2062696C6530
:10148F002079FC6B73656C656E20626972206261F6
:0F149F006861722076617264FD72202120200046
:0114AE00003D
:0314AF004F4B00A0
:0414B2000000000036
:0214B600000034
:0214B800000032
:020000040030CA
:0D000100021F1EFF8381FF0FC00FE00F40A4
:00000001FF
